{
  "_format": "hh-sol-artifact-1",
  "contractName": "MoneyGenerator",
  "sourceName": "contracts/MoneyGenerator.sol",
  "abi": [
    {
      "inputs": [
        {
          "internalType": "address",
          "name": "initialOwner",
          "type": "address"
        }
      ],
      "stateMutability": "nonpayable",
      "type": "constructor"
    },
    {
      "inputs": [],
      "name": "ApprovalCallerNotOwnerNorApproved",
      "type": "error"
    },
    {
      "inputs": [],
      "name": "ApprovalQueryForNonexistentToken",
      "type": "error"
    },
    {
      "inputs": [],
      "name": "BalanceQueryForZeroAddress",
      "type": "error"
    },
    {
      "inputs": [],
      "name": "MintERC2309QuantityExceedsLimit",
      "type": "error"
    },
    {
      "inputs": [],
      "name": "MintToZeroAddress",
      "type": "error"
    },
    {
      "inputs": [],
      "name": "MintZeroQuantity",
      "type": "error"
    },
    {
      "inputs": [],
      "name": "NotCompatibleWithSpotMints",
      "type": "error"
    },
    {
      "inputs": [
        {
          "internalType": "address",
          "name": "caller",
          "type": "address"
        }
      ],
      "name": "NotPieceGenerator",
      "type": "error"
    },
    {
      "inputs": [
        {
          "internalType": "address",
          "name": "owner",
          "type": "address"
        }
      ],
      "name": "OwnableInvalidOwner",
      "type": "error"
    },
    {
      "inputs": [
        {
          "internalType": "address",
          "name": "account",
          "type": "address"
        }
      ],
      "name": "OwnableUnauthorizedAccount",
      "type": "error"
    },
    {
      "inputs": [],
      "name": "OwnerQueryForNonexistentToken",
      "type": "error"
    },
    {
      "inputs": [],
      "name": "OwnershipNotInitializedForExtraData",
      "type": "error"
    },
    {
      "inputs": [],
      "name": "SequentialMintExceedsLimit",
      "type": "error"
    },
    {
      "inputs": [],
      "name": "SequentialUpToTooSmall",
      "type": "error"
    },
    {
      "inputs": [],
      "name": "SpotMintTokenIdTooSmall",
      "type": "error"
    },
    {
      "inputs": [],
      "name": "TokenAlreadyExists",
      "type": "error"
    },
    {
      "inputs": [],
      "name": "TransferCallerNotOwnerNorApproved",
      "type": "error"
    },
    {
      "inputs": [],
      "name": "TransferFromIncorrectOwner",
      "type": "error"
    },
    {
      "inputs": [],
      "name": "TransferToNonERC721ReceiverImplementer",
      "type": "error"
    },
    {
      "inputs": [],
      "name": "TransferToZeroAddress",
      "type": "error"
    },
    {
      "inputs": [],
      "name": "URIQueryForNonexistentToken",
      "type": "error"
    },
    {
      "anonymous": false,
      "inputs": [
        {
          "indexed": true,
          "internalType": "address",
          "name": "owner",
          "type": "address"
        },
        {
          "indexed": true,
          "internalType": "address",
          "name": "approved",
          "type": "address"
        },
        {
          "indexed": true,
          "internalType": "uint256",
          "name": "tokenId",
          "type": "uint256"
        }
      ],
      "name": "Approval",
      "type": "event"
    },
    {
      "anonymous": false,
      "inputs": [
        {
          "indexed": true,
          "internalType": "address",
          "name": "owner",
          "type": "address"
        },
        {
          "indexed": true,
          "internalType": "address",
          "name": "operator",
          "type": "address"
        },
        {
          "indexed": false,
          "internalType": "bool",
          "name": "approved",
          "type": "bool"
        }
      ],
      "name": "ApprovalForAll",
      "type": "event"
    },
    {
      "anonymous": false,
      "inputs": [
        {
          "indexed": true,
          "internalType": "uint256",
          "name": "fromTokenId",
          "type": "uint256"
        },
        {
          "indexed": false,
          "internalType": "uint256",
          "name": "toTokenId",
          "type": "uint256"
        },
        {
          "indexed": true,
          "internalType": "address",
          "name": "from",
          "type": "address"
        },
        {
          "indexed": true,
          "internalType": "address",
          "name": "to",
          "type": "address"
        }
      ],
      "name": "ConsecutiveTransfer",
      "type": "event"
    },
    {
      "anonymous": false,
      "inputs": [
        {
          "indexed": true,
          "internalType": "address",
          "name": "previousOwner",
          "type": "address"
        },
        {
          "indexed": true,
          "internalType": "address",
          "name": "newOwner",
          "type": "address"
        }
      ],
      "name": "OwnershipTransferred",
      "type": "event"
    },
    {
      "anonymous": false,
      "inputs": [
        {
          "indexed": true,
          "internalType": "address",
          "name": "from",
          "type": "address"
        },
        {
          "indexed": true,
          "internalType": "address",
          "name": "to",
          "type": "address"
        },
        {
          "indexed": true,
          "internalType": "uint256",
          "name": "tokenId",
          "type": "uint256"
        }
      ],
      "name": "Transfer",
      "type": "event"
    },
    {
      "inputs": [
        {
          "internalType": "address",
          "name": "to",
          "type": "address"
        },
        {
          "internalType": "uint256",
          "name": "tokenId",
          "type": "uint256"
        }
      ],
      "name": "approve",
      "outputs": [],
      "stateMutability": "payable",
      "type": "function"
    },
    {
      "inputs": [
        {
          "internalType": "address",
          "name": "owner",
          "type": "address"
        }
      ],
      "name": "balanceOf",
      "outputs": [
        {
          "internalType": "uint256",
          "name": "",
          "type": "uint256"
        }
      ],
      "stateMutability": "view",
      "type": "function"
    },
    {
      "inputs": [
        {
          "internalType": "address[]",
          "name": "user",
          "type": "address[]"
        }
      ],
      "name": "generateMoney",
      "outputs": [],
      "stateMutability": "nonpayable",
      "type": "function"
    },
    {
      "inputs": [
        {
          "internalType": "uint256",
          "name": "tokenId",
          "type": "uint256"
        }
      ],
      "name": "getApproved",
      "outputs": [
        {
          "internalType": "address",
          "name": "",
          "type": "address"
        }
      ],
      "stateMutability": "view",
      "type": "function"
    },
    {
      "inputs": [
        {
          "internalType": "address",
          "name": "owner",
          "type": "address"
        },
        {
          "internalType": "address",
          "name": "operator",
          "type": "address"
        }
      ],
      "name": "isApprovedForAll",
      "outputs": [
        {
          "internalType": "bool",
          "name": "",
          "type": "bool"
        }
      ],
      "stateMutability": "view",
      "type": "function"
    },
    {
      "inputs": [],
      "name": "name",
      "outputs": [
        {
          "internalType": "string",
          "name": "",
          "type": "string"
        }
      ],
      "stateMutability": "view",
      "type": "function"
    },
    {
      "inputs": [],
      "name": "owner",
      "outputs": [
        {
          "internalType": "address",
          "name": "",
          "type": "address"
        }
      ],
      "stateMutability": "view",
      "type": "function"
    },
    {
      "inputs": [
        {
          "internalType": "uint256",
          "name": "tokenId",
          "type": "uint256"
        }
      ],
      "name": "ownerOf",
      "outputs": [
        {
          "internalType": "address",
          "name": "",
          "type": "address"
        }
      ],
      "stateMutability": "view",
      "type": "function"
    },
    {
      "inputs": [],
      "name": "renounceOwnership",
      "outputs": [],
      "stateMutability": "nonpayable",
      "type": "function"
    },
    {
      "inputs": [
        {
          "internalType": "address",
          "name": "to",
          "type": "address"
        },
        {
          "internalType": "uint256",
          "name": "quantity",
          "type": "uint256"
        }
      ],
      "name": "safeMint",
      "outputs": [],
      "stateMutability": "nonpayable",
      "type": "function"
    },
    {
      "inputs": [
        {
          "internalType": "address",
          "name": "from",
          "type": "address"
        },
        {
          "internalType": "address",
          "name": "to",
          "type": "address"
        },
        {
          "internalType": "uint256",
          "name": "tokenId",
          "type": "uint256"
        }
      ],
      "name": "safeTransferFrom",
      "outputs": [],
      "stateMutability": "payable",
      "type": "function"
    },
    {
      "inputs": [
        {
          "internalType": "address",
          "name": "from",
          "type": "address"
        },
        {
          "internalType": "address",
          "name": "to",
          "type": "address"
        },
        {
          "internalType": "uint256",
          "name": "tokenId",
          "type": "uint256"
        },
        {
          "internalType": "bytes",
          "name": "_data",
          "type": "bytes"
        }
      ],
      "name": "safeTransferFrom",
      "outputs": [],
      "stateMutability": "payable",
      "type": "function"
    },
    {
      "inputs": [
        {
          "internalType": "address",
          "name": "operator",
          "type": "address"
        },
        {
          "internalType": "bool",
          "name": "approved",
          "type": "bool"
        }
      ],
      "name": "setApprovalForAll",
      "outputs": [],
      "stateMutability": "nonpayable",
      "type": "function"
    },
    {
      "inputs": [
        {
          "internalType": "address",
          "name": "_pieceGenerator",
          "type": "address"
        }
      ],
      "name": "setPieceGenerator",
      "outputs": [],
      "stateMutability": "nonpayable",
      "type": "function"
    },
    {
      "inputs": [
        {
          "internalType": "bytes4",
          "name": "interfaceId",
          "type": "bytes4"
        }
      ],
      "name": "supportsInterface",
      "outputs": [
        {
          "internalType": "bool",
          "name": "",
          "type": "bool"
        }
      ],
      "stateMutability": "view",
      "type": "function"
    },
    {
      "inputs": [],
      "name": "symbol",
      "outputs": [
        {
          "internalType": "string",
          "name": "",
          "type": "string"
        }
      ],
      "stateMutability": "view",
      "type": "function"
    },
    {
      "inputs": [
        {
          "internalType": "uint256",
          "name": "tokenId",
          "type": "uint256"
        }
      ],
      "name": "tokenURI",
      "outputs": [
        {
          "internalType": "string",
          "name": "",
          "type": "string"
        }
      ],
      "stateMutability": "view",
      "type": "function"
    },
    {
      "inputs": [],
      "name": "totalSupply",
      "outputs": [
        {
          "internalType": "uint256",
          "name": "result",
          "type": "uint256"
        }
      ],
      "stateMutability": "view",
      "type": "function"
    },
    {
      "inputs": [
        {
          "internalType": "address",
          "name": "from",
          "type": "address"
        },
        {
          "internalType": "address",
          "name": "to",
          "type": "address"
        },
        {
          "internalType": "uint256",
          "name": "tokenId",
          "type": "uint256"
        }
      ],
      "name": "transferFrom",
      "outputs": [],
      "stateMutability": "payable",
      "type": "function"
    },
    {
      "inputs": [
        {
          "internalType": "address",
          "name": "newOwner",
          "type": "address"
        }
      ],
      "name": "transferOwnership",
      "outputs": [],
      "stateMutability": "nonpayable",
      "type": "function"
    }
  ],
  "bytecode": "0x60806040523480156200001157600080fd5b506040516200282038038062002820833981810160405281019062000037919062000315565b806040518060400160405280601181526020017f467265654d6f6e657945766572796461790000000000000000000000000000008152506040518060400160405280600381526020017f464d4500000000000000000000000000000000000000000000000000000000008152508160029081620000b59190620005c1565b508060039081620000c79190620005c1565b50620000d8620001ae60201b60201c565b600081905550620000ee620001ae60201b60201c565b620000fe620001b360201b60201c565b10156200011e576200011d63fed8210f60e01b620001db60201b60201c565b5b5050600073ffffffffffffffffffffffffffffffffffffffff168173ffffffffffffffffffffffffffffffffffffffff1603620001955760006040517f1e4fbdf70000000000000000000000000000000000000000000000000000000081526004016200018c9190620006b9565b60405180910390fd5b620001a681620001e560201b60201c565b5050620006d6565b600090565b60007fffffffffffffffffffffffffffffffffffffffffffffffffffffffffffffffff905090565b8060005260046000fd5b6000600960009054906101000a900473ffffffffffffffffffffffffffffffffffffffff16905081600960006101000a81548173ffffffffffffffffffffffffffffffffffffffff021916908373ffffffffffffffffffffffffffffffffffffffff1602179055508173ffffffffffffffffffffffffffffffffffffffff168173ffffffffffffffffffffffffffffffffffffffff167f8be0079c531659141344cd1fd0a4f28419497f9722a3daafe3b4186f6b6457e060405160405180910390a35050565b600080fd5b600073ffffffffffffffffffffffffffffffffffffffff82169050919050565b6000620002dd82620002b0565b9050919050565b620002ef81620002d0565b8114620002fb57600080fd5b50565b6000815190506200030f81620002e4565b92915050565b6000602082840312156200032e576200032d620002ab565b5b60006200033e84828501620002fe565b91505092915050565b600081519050919050565b7f4e487b7100000000000000000000000000000000000000000000000000000000600052604160045260246000fd5b7f4e487b7100000000000000000000000000000000000000000000000000000000600052602260045260246000fd5b60006002820490506001821680620003c957607f821691505b602082108103620003df57620003de62000381565b5b50919050565b60008190508160005260206000209050919050565b60006020601f8301049050919050565b600082821b905092915050565b600060088302620004497fffffffffffffffffffffffffffffffffffffffffffffffffffffffffffffffff826200040a565b6200045586836200040a565b95508019841693508086168417925050509392505050565b6000819050919050565b6000819050919050565b6000620004a26200049c62000496846200046d565b62000477565b6200046d565b9050919050565b6000819050919050565b620004be8362000481565b620004d6620004cd82620004a9565b84845462000417565b825550505050565b600090565b620004ed620004de565b620004fa818484620004b3565b505050565b5b81811015620005225762000516600082620004e3565b60018101905062000500565b5050565b601f82111562000571576200053b81620003e5565b6200054684620003fa565b8101602085101562000556578190505b6200056e6200056585620003fa565b830182620004ff565b50505b505050565b600082821c905092915050565b6000620005966000198460080262000576565b1980831691505092915050565b6000620005b1838362000583565b9150826002028217905092915050565b620005cc8262000347565b67ffffffffffffffff811115620005e857620005e762000352565b5b620005f48254620003b0565b6200060182828562000526565b600060209050601f83116001811462000639576000841562000624578287015190505b620006308582620005a3565b865550620006a0565b601f1984166200064986620003e5565b60005b8281101562000673578489015182556001820191506020850194506020810190506200064c565b868310156200069357848901516200068f601f89168262000583565b8355505b6001600288020188555050505b505050505050565b620006b381620002d0565b82525050565b6000602082019050620006d06000830184620006a8565b92915050565b61213a80620006e66000396000f3fe60806040526004361061011f5760003560e01c80638da5cb5b116100a0578063c87b56dd11610064578063c87b56dd1461039d578063cc44750e146103da578063d45a59ec14610403578063e985e9c51461042c578063f2fde38b146104695761011f565b80638da5cb5b146102d957806395d89b4114610304578063a14481941461032f578063a22cb46514610358578063b88d4fde146103815761011f565b806323b872dd116100e757806323b872dd1461021057806342842e0e1461022c5780636352211e1461024857806370a0823114610285578063715018a6146102c25761011f565b806301ffc9a71461012457806306fdde0314610161578063081812fc1461018c578063095ea7b3146101c957806318160ddd146101e5575b600080fd5b34801561013057600080fd5b5061014b600480360381019061014691906118aa565b610492565b60405161015891906118f2565b60405180910390f35b34801561016d57600080fd5b50610176610524565b604051610183919061199d565b60405180910390f35b34801561019857600080fd5b506101b360048036038101906101ae91906119f5565b6105b6565b6040516101c09190611a63565b60405180910390f35b6101e360048036038101906101de9190611aaa565b610614565b005b3480156101f157600080fd5b506101fa610624565b6040516102079190611af9565b60405180910390f35b61022a60048036038101906102259190611b14565b610671565b005b61024660048036038101906102419190611b14565b610932565b005b34801561025457600080fd5b5061026f600480360381019061026a91906119f5565b610952565b60405161027c9190611a63565b60405180910390f35b34801561029157600080fd5b506102ac60048036038101906102a79190611b67565b610964565b6040516102b99190611af9565b60405180910390f35b3480156102ce57600080fd5b506102d76109fb565b005b3480156102e557600080fd5b506102ee610a0f565b6040516102fb9190611a63565b60405180910390f35b34801561031057600080fd5b50610319610a39565b604051610326919061199d565b60405180910390f35b34801561033b57600080fd5b5061035660048036038101906103519190611aaa565b610acb565b005b34801561036457600080fd5b5061037f600480360381019061037a9190611bc0565b610b6b565b005b61039b60048036038101906103969190611d35565b610c76565b005b3480156103a957600080fd5b506103c460048036038101906103bf91906119f5565b610cc8565b6040516103d1919061199d565b60405180910390f35b3480156103e657600080fd5b5061040160048036038101906103fc9190611e80565b610d45565b005b34801561040f57600080fd5b5061042a60048036038101906104259190611b67565b610d50565b005b34801561043857600080fd5b50610453600480360381019061044e9190611ec9565b610d9c565b60405161046091906118f2565b60405180910390f35b34801561047557600080fd5b50610490600480360381019061048b9190611b67565b610e30565b005b60006301ffc9a760e01b827bffffffffffffffffffffffffffffffffffffffffffffffffffffffff191614806104ed57506380ac58cd60e01b827bffffffffffffffffffffffffffffffffffffffffffffffffffffffff1916145b8061051d5750635b5e139f60e01b827bffffffffffffffffffffffffffffffffffffffffffffffffffffffff1916145b9050919050565b60606002805461053390611f38565b80601f016020809104026020016040519081016040528092919081815260200182805461055f90611f38565b80156105ac5780601f10610581576101008083540402835291602001916105ac565b820191906000526020600020905b81548152906001019060200180831161058f57829003601f168201915b5050505050905090565b60006105c182610eb6565b6105d6576105d563cf4700e460e01b610f62565b5b6006600083815260200190815260200160002060000160009054906101000a900473ffffffffffffffffffffffffffffffffffffffff169050919050565b61062082826001610f6c565b5050565b600061062e61109b565b600154600054030390507fffffffffffffffffffffffffffffffffffffffffffffffffffffffffffffffff6106616110a0565b1461066e57600854810190505b90565b600061067c826110c8565b905073ffffffffffffffffffffffffffffffffffffffff8473ffffffffffffffffffffffffffffffffffffffff161693508373ffffffffffffffffffffffffffffffffffffffff168173ffffffffffffffffffffffffffffffffffffffff16146106f1576106f063a114810060e01b610f62565b5b6000806106fd846111e1565b91509150610713818761070e611208565b611210565b61073e5761072886610723611208565b610d9c565b61073d5761073c6359c896be60e01b610f62565b5b5b61074b8686866001611254565b801561075657600082555b600560008773ffffffffffffffffffffffffffffffffffffffff1673ffffffffffffffffffffffffffffffffffffffff168152602001908152602001600020600081546001900391905081905550600560008673ffffffffffffffffffffffffffffffffffffffff1673ffffffffffffffffffffffffffffffffffffffff16815260200190815260200160002060008154600101919050819055506108248561080088888761125a565b7c020000000000000000000000000000000000000000000000000000000017611282565b600460008681526020019081526020016000208190555060007c02000000000000000000000000000000000000000000000000000000008416036108aa57600060018501905060006004600083815260200190815260200160002054036108a85760005481146108a7578360046000838152602001908152602001600020819055505b5b505b600073ffffffffffffffffffffffffffffffffffffffff8673ffffffffffffffffffffffffffffffffffffffff161690508481887fddf252ad1be2c89b69c2b068fc378daa952ba7f163c4a11628f55a4df523b3ef600080a46000810361091c5761091b63ea553b3460e01b610f62565b5b61092987878760016112ad565b50505050505050565b61094d83838360405180602001604052806000815250610c76565b505050565b600061095d826110c8565b9050919050565b60008073ffffffffffffffffffffffffffffffffffffffff168273ffffffffffffffffffffffffffffffffffffffff16036109aa576109a9638f4eb60460e01b610f62565b5b67ffffffffffffffff600560008473ffffffffffffffffffffffffffffffffffffffff1673ffffffffffffffffffffffffffffffffffffffff16815260200190815260200160002054169050919050565b610a036112b3565b610a0d600061133a565b565b6000600960009054906101000a900473ffffffffffffffffffffffffffffffffffffffff16905090565b606060038054610a4890611f38565b80601f0160208091040260200160405190810160405280929190818152602001828054610a7490611f38565b8015610ac15780601f10610a9657610100808354040283529160200191610ac1565b820191906000526020600020905b815481529060010190602001808311610aa457829003601f168201915b5050505050905090565b600a60009054906101000a900473ffffffffffffffffffffffffffffffffffffffff1673ffffffffffffffffffffffffffffffffffffffff163373ffffffffffffffffffffffffffffffffffffffff1614610b5d57336040517f9134eeda000000000000000000000000000000000000000000000000000000008152600401610b549190611a63565b60405180910390fd5b610b678282611400565b5050565b8060076000610b78611208565b73ffffffffffffffffffffffffffffffffffffffff1673ffffffffffffffffffffffffffffffffffffffff16815260200190815260200160002060008473ffffffffffffffffffffffffffffffffffffffff1673ffffffffffffffffffffffffffffffffffffffff16815260200190815260200160002060006101000a81548160ff0219169083151502179055508173ffffffffffffffffffffffffffffffffffffffff16610c25611208565b73ffffffffffffffffffffffffffffffffffffffff167f17307eab39ab6107e8899845ad3d59bd9653f200f220920489ca2b5937696c3183604051610c6a91906118f2565b60405180910390a35050565b610c81848484610671565b60008373ffffffffffffffffffffffffffffffffffffffff163b14610cc257610cac8484848461141e565b610cc157610cc063d1a57ed660e01b610f62565b5b5b50505050565b6060610cd382610eb6565b610ce857610ce763a14c4b5060e01b610f62565b5b6000610cf261154d565b90506000815103610d125760405180602001604052806000815250610d3d565b80610d1c8461158a565b604051602001610d2d929190611fa5565b6040516020818303038152906040525b915050919050565b610d4d6112b3565b50565b610d586112b3565b80600a60006101000a81548173ffffffffffffffffffffffffffffffffffffffff021916908373ffffffffffffffffffffffffffffffffffffffff16021790555050565b6000600760008473ffffffffffffffffffffffffffffffffffffffff1673ffffffffffffffffffffffffffffffffffffffff16815260200190815260200160002060008373ffffffffffffffffffffffffffffffffffffffff1673ffffffffffffffffffffffffffffffffffffffff16815260200190815260200160002060009054906101000a900460ff16905092915050565b610e386112b3565b600073ffffffffffffffffffffffffffffffffffffffff168173ffffffffffffffffffffffffffffffffffffffff1603610eaa5760006040517f1e4fbdf7000000000000000000000000000000000000000000000000000000008152600401610ea19190611a63565b60405180910390fd5b610eb38161133a565b50565b600081610ec161109b565b11610f5c57610ece6110a0565b821115610ef857610ef160046000848152602001908152602001600020546115da565b9050610f5d565b600054821015610f5b5760005b6000600460008581526020019081526020016000205491508103610f345782610f2d90611ff8565b9250610f05565b60007c01000000000000000000000000000000000000000000000000000000008216149150505b5b5b919050565b8060005260046000fd5b6000610f7783610952565b9050818015610fb957508073ffffffffffffffffffffffffffffffffffffffff16610fa0611208565b73ffffffffffffffffffffffffffffffffffffffff1614155b15610fe557610fcf81610fca611208565b610d9c565b610fe457610fe363cfb3b94260e01b610f62565b5b5b836006600085815260200190815260200160002060000160006101000a81548173ffffffffffffffffffffffffffffffffffffffff021916908373ffffffffffffffffffffffffffffffffffffffff160217905550828473ffffffffffffffffffffffffffffffffffffffff168273ffffffffffffffffffffffffffffffffffffffff167f8c5be1e5ebec7d5bd14f71427d1e84f3dd0314c0f7b2291e5b200ac8c7c3b92560405160405180910390a450505050565b600090565b60007fffffffffffffffffffffffffffffffffffffffffffffffffffffffffffffffff905090565b6000816110d361109b565b116111cb57600460008381526020019081526020016000205490506110f66110a0565b82111561111b57611106816115da565b6111dc5761111a63df2d9b4260e01b610f62565b5b600081036111a257600054821061113d5761113c63df2d9b4260e01b610f62565b5b5b6004600083600190039350838152602001908152602001600020549050600081031561119d5760007c0100000000000000000000000000000000000000000000000000000000821603156111dc5761119c63df2d9b4260e01b610f62565b5b61113e565b60007c0100000000000000000000000000000000000000000000000000000000821603156111dc575b6111db63df2d9b4260e01b610f62565b5b919050565b60008060006006600085815260200190815260200160002090508092508254915050915091565b600033905090565b600073ffffffffffffffffffffffffffffffffffffffff8316925073ffffffffffffffffffffffffffffffffffffffff821691508382148383141790509392505050565b50505050565b60008060e883901c905060e861127186868461161b565b62ffffff16901b9150509392505050565b600073ffffffffffffffffffffffffffffffffffffffff83169250814260a01b178317905092915050565b50505050565b6112bb611624565b73ffffffffffffffffffffffffffffffffffffffff166112d9610a0f565b73ffffffffffffffffffffffffffffffffffffffff1614611338576112fc611624565b6040517f118cdaa700000000000000000000000000000000000000000000000000000000815260040161132f9190611a63565b60405180910390fd5b565b6000600960009054906101000a900473ffffffffffffffffffffffffffffffffffffffff16905081600960006101000a81548173ffffffffffffffffffffffffffffffffffffffff021916908373ffffffffffffffffffffffffffffffffffffffff1602179055508173ffffffffffffffffffffffffffffffffffffffff168173ffffffffffffffffffffffffffffffffffffffff167f8be0079c531659141344cd1fd0a4f28419497f9722a3daafe3b4186f6b6457e060405160405180910390a35050565b61141a82826040518060200160405280600081525061162c565b5050565b60008373ffffffffffffffffffffffffffffffffffffffff1663150b7a02611444611208565b8786866040518563ffffffff1660e01b81526004016114669493929190612076565b6020604051808303816000875af19250505080156114a257506040513d601f19601f8201168201806040525081019061149f91906120d7565b60015b6114fa573d80600081146114d2576040519150601f19603f3d011682016040523d82523d6000602084013e6114d7565b606091505b5060008151036114f2576114f163d1a57ed660e01b610f62565b5b805181602001fd5b63150b7a0260e01b7bffffffffffffffffffffffffffffffffffffffffffffffffffffffff1916817bffffffffffffffffffffffffffffffffffffffffffffffffffffffff191614915050949350505050565b60606040518060400160405280600b81526020017f706c616365686f6c646572000000000000000000000000000000000000000000815250905090565b606060a060405101806040526020810391506000825281835b6001156115c557600184039350600a81066030018453600a81049050806115a3575b50828103602084039350808452505050919050565b60007c0100000000000000000000000000000000000000000000000000000000821673ffffffffffffffffffffffffffffffffffffffff8316119050919050565b60009392505050565b600033905090565b61163683836116a8565b60008373ffffffffffffffffffffffffffffffffffffffff163b146116a357600080549050600083820390505b611676600086838060010194508661141e565b61168b5761168a63d1a57ed660e01b610f62565b5b8181106116635781600054146116a057600080fd5b50505b505050565b600080549050600082036116c7576116c663b562e8dd60e01b610f62565b5b6116d46000848385611254565b6116f4836116e5600086600061125a565b6116ee8561182e565b17611282565b6004600083815260200190815260200160002081905550600160406001901b178202600560008573ffffffffffffffffffffffffffffffffffffffff1673ffffffffffffffffffffffffffffffffffffffff16815260200190815260200160002060008282540192505081905550600073ffffffffffffffffffffffffffffffffffffffff8473ffffffffffffffffffffffffffffffffffffffff16169050600081036117ac576117ab632e07630060e01b610f62565b5b6000838301905060008390506117c06110a0565b6001830311156117db576117da6381647e3a60e01b610f62565b5b5b808360007fddf252ad1be2c89b69c2b068fc378daa952ba7f163c4a11628f55a4df523b3ef600080a48181600101915081036117dc578160008190555050505061182960008483856112ad565b505050565b60006001821460e11b9050919050565b6000604051905090565b600080fd5b600080fd5b60007fffffffff0000000000000000000000000000000000000000000000000000000082169050919050565b61188781611852565b811461189257600080fd5b50565b6000813590506118a48161187e565b92915050565b6000602082840312156118c0576118bf611848565b5b60006118ce84828501611895565b91505092915050565b60008115159050919050565b6118ec816118d7565b82525050565b600060208201905061190760008301846118e3565b92915050565b600081519050919050565b600082825260208201905092915050565b60005b8381101561194757808201518184015260208101905061192c565b60008484015250505050565b6000601f19601f8301169050919050565b600061196f8261190d565b6119798185611918565b9350611989818560208601611929565b61199281611953565b840191505092915050565b600060208201905081810360008301526119b78184611964565b905092915050565b6000819050919050565b6119d2816119bf565b81146119dd57600080fd5b50565b6000813590506119ef816119c9565b92915050565b600060208284031215611a0b57611a0a611848565b5b6000611a19848285016119e0565b91505092915050565b600073ffffffffffffffffffffffffffffffffffffffff82169050919050565b6000611a4d82611a22565b9050919050565b611a5d81611a42565b82525050565b6000602082019050611a786000830184611a54565b92915050565b611a8781611a42565b8114611a9257600080fd5b50565b600081359050611aa481611a7e565b92915050565b60008060408385031215611ac157611ac0611848565b5b6000611acf85828601611a95565b9250506020611ae0858286016119e0565b9150509250929050565b611af3816119bf565b82525050565b6000602082019050611b0e6000830184611aea565b92915050565b600080600060608486031215611b2d57611b2c611848565b5b6000611b3b86828701611a95565b9350506020611b4c86828701611a95565b9250506040611b5d868287016119e0565b9150509250925092565b600060208284031215611b7d57611b7c611848565b5b6000611b8b84828501611a95565b91505092915050565b611b9d816118d7565b8114611ba857600080fd5b50565b600081359050611bba81611b94565b92915050565b60008060408385031215611bd757611bd6611848565b5b6000611be585828601611a95565b9250506020611bf685828601611bab565b9150509250929050565b600080fd5b600080fd5b7f4e487b7100000000000000000000000000000000000000000000000000000000600052604160045260246000fd5b611c4282611953565b810181811067ffffffffffffffff82111715611c6157611c60611c0a565b5b80604052505050565b6000611c7461183e565b9050611c808282611c39565b919050565b600067ffffffffffffffff821115611ca057611c9f611c0a565b5b611ca982611953565b9050602081019050919050565b82818337600083830152505050565b6000611cd8611cd384611c85565b611c6a565b905082815260208101848484011115611cf457611cf3611c05565b5b611cff848285611cb6565b509392505050565b600082601f830112611d1c57611d1b611c00565b5b8135611d2c848260208601611cc5565b91505092915050565b60008060008060808587031215611d4f57611d4e611848565b5b6000611d5d87828801611a95565b9450506020611d6e87828801611a95565b9350506040611d7f878288016119e0565b925050606085013567ffffffffffffffff811115611da057611d9f61184d565b5b611dac87828801611d07565b91505092959194509250565b600067ffffffffffffffff821115611dd357611dd2611c0a565b5b602082029050602081019050919050565b600080fd5b6000611dfc611df784611db8565b611c6a565b90508083825260208201905060208402830185811115611e1f57611e1e611de4565b5b835b81811015611e485780611e348882611a95565b845260208401935050602081019050611e21565b5050509392505050565b600082601f830112611e6757611e66611c00565b5b8135611e77848260208601611de9565b91505092915050565b600060208284031215611e9657611e95611848565b5b600082013567ffffffffffffffff811115611eb457611eb361184d565b5b611ec084828501611e52565b91505092915050565b60008060408385031215611ee057611edf611848565b5b6000611eee85828601611a95565b9250506020611eff85828601611a95565b9150509250929050565b7f4e487b7100000000000000000000000000000000000000000000000000000000600052602260045260246000fd5b60006002820490506001821680611f5057607f821691505b602082108103611f6357611f62611f09565b5b50919050565b600081905092915050565b6000611f7f8261190d565b611f898185611f69565b9350611f99818560208601611929565b80840191505092915050565b6000611fb18285611f74565b9150611fbd8284611f74565b91508190509392505050565b7f4e487b7100000000000000000000000000000000000000000000000000000000600052601160045260246000fd5b6000612003826119bf565b91506000820361201657612015611fc9565b5b600182039050919050565b600081519050919050565b600082825260208201905092915050565b600061204882612021565b612052818561202c565b9350612062818560208601611929565b61206b81611953565b840191505092915050565b600060808201905061208b6000830187611a54565b6120986020830186611a54565b6120a56040830185611aea565b81810360608301526120b7818461203d565b905095945050505050565b6000815190506120d18161187e565b92915050565b6000602082840312156120ed576120ec611848565b5b60006120fb848285016120c2565b9150509291505056fea2646970667358221220a2ed0f8709abfe5e65a9d610e6e066109738e1d68db2be1df2285472eb57efbd64736f6c63430008180033",
  "linkReferences": {},
  "deployedLinkReferences": {}
}